:100000000C945D000C9485000C9485000C94850084
:100010000C9485000C9485000C9485000C9485004C
:100020000C9485000C9485000C9485000C9485003C
:100030000C9485000C9485000C9485000C9485002C
:100040000C9467020C9485000C9485000C94850038
:100050000C9485000C9485000C9485000C9485000C
:100060000C9485000C94850000000008000201003B
:100070000003040700000000000000000000000072
:10008000250028002B0000000000240027002A0083
:10009000040404040404040402020202020203032E
:1000A0000303030301020408102040800102040836
:1000B00010200102040810207B0311241FBECFEF83
:1000C000D8E0DEBFCDBF11E0A0E0B1E0E6E8F7E0A8
:1000D00002C005900D92A232B107D9F721E0A2E249
:1000E000B1E001C01D92A334B207E1F710E0CDE505
:1000F000D0E004C02197FE010E94BB03CC35D1079C
:10010000C9F70E94B1020C94C1030C94000090E066
:10011000FC01EC55FF4F249180579F4FFC018491C7
:10012000882399F090E0880F991FFC01EA57FF4F50
:10013000A591B491FC01E458FF4F859194918FB73C
:10014000F894EC91E22BEC938FBF0895AF92BF929D
:10015000CF92DF92EF92FF920F931F93CF93DF9393
:100160006C017B018B01040F151FEB015E01AE18C2
:10017000BF08C017D10759F06991D601ED91FC91E4
:100180000190F081E02DC6010995892B79F7C50111
:10019000DF91CF911F910F91FF90EF90DF90CF9063
:1001A000BF90AF90089590E0FC01E859FF4F249173
:1001B000FC01EC55FF4F3491FC01E057FF4FE491F7
:1001C000EE23C9F0222339F0233001F1A8F42130C5
:1001D00019F1223029F1F0E0EE0FFF1FE458FF4F34
:1001E000A591B4918FB7F894EC91611126C0309528
:1001F0003E233C938FBF08952730A9F02830C9F0E3
:10020000243049F7809180008F7D03C08091800069
:100210008F7780938000DFCF84B58F7784BDDBCF6D
:1002200084B58F7DFBCF8091B0008F778093B00035
:10023000D2CF8091B0008F7DF9CF3E2BDACF0895D9
:1002400090E080E00895CF93DF93EC0160E08E8131
:100250000E94D30061E08E810E94D30060E08E8115
:100260000E94D3008BE891E00197F1F7DF91CF91E5
:100270000895CF92DF92EF92FF920F931F93CF9347
:10028000DF936C017C0187E0E80EF11CD0E0C0E058
:10029000062F10E0B8010C2E02C0759567950A94E0
:1002A000E2F76170F70181917F010E94D3002196EE
:1002B000C430D10579F7C601DF91CF911F910F911D
:1002C000FF90EF90DF90CF900C942301CF92DF92BC
:1002D000EF92FF920F931F93CF93DF93EC01F62ED3
:1002E000642F8C810E94D3008D818F3F19F060E0D4
:1002F0000E94D3000F2D10E08F8584FF25C06E0172
:1003000087E0C80ED11CF12CE12CB8010E2C02C0E4
:10031000759567950A94E2F76170F60181916F0116
:100320000E94D300FFEFEF1AFF0A88E0E816F104FD
:1003300061F7CE01DF91CF911F910F91FF90EF9068
:10034000DF90CF900C942301B80184E075956795F8
:100350008A95E1F7CE010E9439016F2DCE01DF9120
:10036000CF911F910F91FF90EF90DF90CF900C9461
:10037000390140E0682F8BE291E00C946601CF9345
:10038000DF93823029F490913A01986090933A017A
:1003900080933E0110923F0180E48093400180E110
:1003A0008093410180E58093420180912F010E945A
:1003B0008700809130018F3F11F00E94870080916B
:1003C00031010E948700CBE2D1E09E012B523140E7
:1003D00080913A0184FD0AC084E090E021962817BC
:1003E00039073CF48E810E948700EFCF88E090E0CF
:1003F000F5CF8BE39DE00197F1F760E080912F014D
:100400000E94D30060E0809131010E94D30080916E
:1004100030018F3F19F060E00E94D30080913A01D3
:1004200084FD39C063E08BE291E00E943901CBE4A6
:10043000D6E4CE010197F1F763E08BE291E00E94F0
:1004400039012197F1F763E08BE291E00E943901D5
:1004500083E592E00197F1F762E08BE291E00E9480
:10046000390180913A0180620E94B90184E0809351
:100470003B018CE00E94B90181E00E94B9018BE34D
:100480009FE10197F1F782E080933C0186E0DF91E4
:10049000CF910C94B90180620E94B9018BE496E47B
:1004A0000197F1F780913A0180620E94B90183E5DA
:1004B00092E00197F1F780913A0180620E94B901C0
:1004C000D0CF41E00E94660181E090E008951F9244
:1004D0000F920FB60F9211242F933F938F939F93F8
:1004E000AF93BF938091270190912801A09129019A
:1004F000B0912A013091260123E0230F2D3758F5C2
:100500000196A11DB11D2093260180932701909390
:100510002801A0932901B0932A0180912201909192
:100520002301A0912401B09125010196A11DB11DC7
:100530008093220190932301A0932401B09325017D
:10054000BF91AF919F918F913F912F910F900FBECF
:100550000F901F90189526E8230F0296A11DB11D3C
:10056000D2CFCF93DF93CDB7DEB7A1970FB6F89474
:10057000DEBF0FBECDBF789484B5826084BD84B5E4
:10058000816084BD85B5826085BD85B5816085BD8E
:1005900080916E00816080936E0010928100809146
:1005A00081008260809381008091810081608093CE
:1005B0008100809180008160809380008091B100F3
:1005C00084608093B1008091B00081608093B0001E
:1005D00080917A00846080937A0080917A008260B2
:1005E00080937A0080917A00816080937A00809174
:1005F0007A00806880937A001092C10082E00E94A5
:10060000BF0181E00E94B9018BE39FE10197F1F7FF
:1006100088EEC82E83E0D82EE12CF12C9AE0492EEA
:10062000512C612C712C20E0A22E20E0B22EE1E0B2
:1006300080913E018111E0E0E195F0E0E55DFE4F43
:1006400084898E5F80680E94B9014CE050E06CE0C4
:1006500071E08BE291E00E94A600E0913E01E23061
:1006600008F047C0E150F0E0E55DFE4F8489806806
:100670000E94B90148E050E069E171E08BE291E04D
:100680000E94A6002FB7F89460912701709128016D
:100690008091290190912A012FBFA70196010E9404
:1006A000990319A28E010F5D1F4FCA01B901A30161
:1006B00092010E949903605DF80162938F012115F8
:1006C00031054105510589F7309761F0019000200F
:1006D000E9F73197AF01401B510BB8018BE291E074
:1006E0000E94A600A114B10409F4A1CF0E94000049
:1006F0009ECFE1E0B8CFEBE2F1E01382128284E01A
:1007000091E09183808387E084838FEF858386E007
:10071000868385E0878384E0808783E0818782E029
:1007200082871386148615861686178681E00C94B8
:10073000BF01A1E21A2EAA1BBB1BFD010DC0AA1FFF
:10074000BB1FEE1FFF1FA217B307E407F50720F03A
:10075000A21BB30BE40BF50B661F771F881F991FB5
:100760001A9469F760957095809590959B01AC01FE
:10077000BD01CF010895EE0FFF1F0590F491E02D0C
:060780000994F894FFCF7C
:10078600000000006102A60020011F0148656C6C94
:100796006F20576F726C6421005365636F6E643A05
:0207A600200031
:00000001FF
