:100000000C9462000C948A000C948A000C948A0070
:100010000C948A000C948A000C948A000C948A0038
:100020000C948A000C948A000C948A000C948A0028
:100030000C948A000C948A000C948A000C948A0018
:100040000C9434040C948A000C9402040C94DC0389
:100050000C948A000C948A000C948A000C948A00F8
:100060000C948A000C948A000000000024002700F1
:100070002A0000000000250028002B0000000008D6
:10008000000201000003040700000000000000005F
:1000900000000000230026002900040404040404D6
:1000A0000404020202020202030303030303010227
:1000B00004081020408001020408102001020408F6
:1000C0001020C30411241FBECFEFD8E0DEBFCDBF88
:1000D00011E0A0E0B1E0EAE3F3E102C005900D9287
:1000E000A636B107D9F722E0A6E6B1E001C01D921D
:1000F000A832B207E1F710E0C2E6D0E004C02197D1
:10010000FE010E949509C136D107C9F70E940D056D
:100110000C949B090C940000AF92BF92CF92DF9297
:10012000EF92FF920F931F93CF93DF936C017B01AC
:100130008B01040F151FEB015E01AE18BF08C0173D
:10014000D10759F06991D601ED91FC910190F081B0
:10015000E02DC6010995892B79F7C501DF91CF9173
:100160001F910F91FF90EF90DF90CF90BF90AF90D5
:100170000895FC01538D448D252F30E0842F90E0AD
:10018000821B930B541710F0CF9608950197089592
:10019000FC01918D828D981761F0A28DAE0FBF2F5B
:1001A000B11D5D968C91928D9F5F9F73928F90E0B1
:1001B00008958FEF9FEF0895FC01918D828D981720
:1001C00031F0828DE80FF11D858D90E008958FEF5D
:1001D0009FEF0895FC01918D228D892F90E0805C26
:1001E0009F4F821B91098F739927089583E791E0B0
:1001F0000E94EA0021E0892B09F420E0822F089573
:1002000080E090E0892B29F00E94F60081110C9487
:1002100000000895FC01A48DA80FB92FB11DA35AA9
:10022000BF4F2C91848D90E001968F739927848F16
:10023000A689B7892C93A089B1898C918370806439
:100240008C93938D848D981306C00288F389E02DDA
:1002500080818F7D80830895EF92FF920F931F938B
:10026000CF93DF93EC0181E0888F9B8D8C8D981369
:100270001AC0E889F989808185FF15C09FB7F89475
:10028000EE89FF896083E889F989808183708064C1
:1002900080839FBF81E090E0DF91CF911F910F910C
:1002A000FF90EF900895F62E0B8D10E00F5F1F4F1B
:1002B0000F731127E02E8C8D8E110CC00FB607FC2A
:1002C000FACFE889F989808185FFF5CFCE010E94B8
:1002D0000A01F1CFEB8DEC0FFD2FF11DE35AFF4F1B
:1002E000F0829FB7F8940B8FEA89FB898081806246
:1002F000CFCFCF93DF93EC01888D8823B9F0AA8903
:10030000BB89E889F9898C9185FD03C0808186FDD0
:100310000DC00FB607FCF7CF8C9185FFF2CF80811F
:1003200085FFEDCFCE010E940A01E9CFDF91CF9189
:10033000089590E0FC01E458FF4F2491FC01E25540
:10034000FF4F3491FC01E656FF4FE491EE23C9F0D4
:10035000222339F0233001F1A8F4213019F12230A1
:1003600029F1F0E0EE0FFF1FEE58FF4FA591B49179
:100370008FB7F894EC91611126C030953E233C93E1
:100380008FBF08952730A9F02830C9F0243049F7ED
:10039000809180008F7D03C0809180008F77809353
:1003A0008000DFCF84B58F7784BDDBCF84B58F7DB0
:1003B000FBCF8091B0008F778093B000D2CF809137
:1003C000B0008F7DF9CF3E2BDACFCF93DF9390E053
:1003D000FC01E255FF4F249186569F4FFC0184910A
:1003E0008823D1F090E0880F991FFC01E859FF4F56
:1003F000A591B491FC01EE58FF4FC591D4916111C4
:100400000EC09FB7F8948C91E22FE0958E238C93C9
:100410002881E223E8839FBFDF91CF9108958FB7B2
:10042000F894EC91E22BEC938FBFF6CF3FB7F894A2
:1004300080916B0190916C01A0916D01B0916E0162
:1004400026B5A89B05C02F3F19F00196A11DB11D2F
:100450003FBFBA2FA92F982F8827BC01CD01620F6B
:10046000711D811D911D42E0660F771F881F991F26
:100470004A95D1F70895089590E080E00895CF93CC
:10048000DF93EC0160E08E810E94990161E08E8132
:100490000E94990160E08E810E9499018BE891E0B1
:1004A0000197F1F7DF91CF910895CF92DF92EF920C
:1004B000FF920F931F93CF93DF936C017C0187E032
:1004C000E80EF11CD0E0C0E0062F10E0B8010C2EC1
:1004D00002C0759567950A94E2F76170F701819102
:1004E0007F010E9499012196C430D10579F7C60198
:1004F000DF91CF911F910F91FF90EF90DF90CF9000
:100500000C943F02CF92DF92EF92FF920F931F93D2
:10051000CF93DF93EC01F62E642F8C810E9499011A
:100520008D818F3F19F060E00E9499010F2D10E03E
:100530008F8584FF25C06E0187E0C80ED11CF12C89
:10054000E12CB8010E2C02C0759567950A94E2F76C
:100550006170F60181916F010E949901FFEFEF1A1E
:10056000FF0A88E0E816F10461F7CE01DF91CF9130
:100570001F910F91FF90EF90DF90CF900C943F026E
:10058000B80184E0759567958A95E1F7CE010E94E0
:1005900055026F2DCE01DF91CF911F910F91FF90EA
:1005A000EF90DF90CF900C94550240E0682F80E1EF
:1005B00092E00C948202CF93DF93823029F49091E1
:1005C0001F02986090931F028093230210922402CE
:1005D00080E48093250280E18093260280E5809369
:1005E000270261E0809114020E94E50180911502CA
:1005F0008F3F19F061E00E94E50161E080911602F1
:100600000E94E501C0E1D2E09E012051324080917C
:100610001F0284FD0BC084E090E021962817390763
:1006200044F461E08E810E94E501EECF88E090E025
:10063000F4CF8BE39DE00197F1F760E08091140225
:100640000E94990160E0809116020E9499018091B8
:1006500015028F3F19F060E00E94990180911F02FE
:1006600084FD39C063E080E192E00E945502CBE452
:10067000D6E4CE010197F1F763E080E192E00E94B9
:1006800055022197F1F763E080E192E00E94550264
:1006900083E592E00197F1F762E080E192E00E9449
:1006A000550280911F0280620E94D50284E08093EF
:1006B00020028CE00E94D50281E00E94D5028BE3EB
:1006C0009FE10197F1F782E08093210286E0DF91BC
:1006D000CF910C94D50280620E94D5028BE496E4FF
:1006E0000197F1F780911F0280620E94D50283E595
:1006F00092E00197F1F780911F0280620E94D5027B
:10070000D0CF41E00E94820281E090E00895FB0199
:1007100001900020E9F73197AF01461B570BDC0130
:10072000ED91FC910280F381E02D09948F929F92CC
:10073000AF92BF920F931F93CF93DF93CDB7DEB7E6
:10074000A1970FB6F894DEBF0FBECDBF19A24230FD
:1007500008F44AE08E010F5D1F4F842E912CB12CBE
:10076000A12CA50194010E947309E62FB901CA01C9
:10077000EA3004F5E05DD801EE938D01232B242BA4
:10078000252B79F790E080E0109729F0BD0183E7F1
:1007900091E00E948703A1960FB6F894DEBF0FBECA
:1007A000CDBFDF91CF911F910F91BF90AF909F90E0
:1007B0008F900895E95CDFCF1F920F920FB60F92D2
:1007C00011242F933F934F935F936F937F938F9356
:1007D0009F93AF93BF93EF93FF9383E791E00E94C2
:1007E0000A01FF91EF91BF91AF919F918F917F91FE
:1007F0006F915F914F913F912F910F900FBE0F908E
:100800001F9018951F920F920FB60F9211242F93DD
:100810008F939F93EF93FF93E0918301F091840175
:100820008081E0918901F0918A0182FD1BC0908155
:1008300080918C018F5F8F7320918D01821741F021
:10084000E0918C01F0E0ED58FE4F958F80938C0184
:10085000FF91EF919F918F912F910F900FBE0F906D
:100860001F9018958081F4CF1F920F920FB60F92B0
:1008700011242F933F938F939F93AF93BF938091B6
:10088000670190916801A0916901B0916A0130916E
:10089000660123E0230F2D3758F50196A11DB11DE8
:1008A000209366018093670190936801A09369018A
:1008B000B0936A0180916B0190916C01A0916D01E0
:1008C000B0916E010196A11DB11D80936B019093B3
:1008D0006C01A0936D01B0936E01BF91AF919F9198
:1008E0008F913F912F910F900FBE0F901F901895F1
:1008F00026E8230F0296A11DB11DD2CFCF92DF9221
:10090000EF92FF920F931F93E82FF92F05C001502C
:1009100011092109310961F1908196239417B9F3E6
:1009200005C0015011092109310911F19081962367
:100930009413F7CFC12CD12CE12CF12C0AC08FEFEE
:10094000C81AD80AE80AF80A0C151D052E053F0535
:1009500079F080818623841791F36C2D7D2D8E2D67
:100960009F2D1F910F91FF90EF90DF90CF900895F2
:1009700060E070E080E090E01F910F91FF90EF90B9
:10098000DF90CF900895E3E7F1E01382128288EEC2
:1009900093E0A0E0B0E084839583A683B78384E0EE
:1009A00091E09183808385EC90E09587848784EC47
:1009B00090E09787868780EC90E0918B808B81EC2C
:1009C00090E0938B828B82EC90E0958B848B86EC0D
:1009D00090E0978B868B118E128E138E148EE0E131
:1009E000F2E01382128286E191E09183808389E0B4
:1009F00084838FEF858388E0868387E0878386E022
:100A0000808785E0818784E0828713861486158637
:100A10001686178681E00C94DB02789484B5826098
:100A200084BD84B5816084BD85B5826085BD85B592
:100A3000816085BD80916E00816080936E00109210
:100A4000810080918100826080938100809181008B
:100A5000816080938100809180008160809380001C
:100A60008091B10084608093B1008091B00081607A
:100A70008093B00080917A00846080937A008091A6
:100A80007A00826080937A0080917A0081608093FE
:100A90007A0080917A00806880937A001092C10079
:100AA000E0918301F091840182E08083E0917F01F5
:100AB000F09180011082E0918101F09182018FEC30
:100AC000808310928B01E0918701F091880186E08C
:100AD0008083E0918501F09186018081806180832F
:100AE000E0918501F0918601808188608083E091AA
:100AF0008501F0918601808180688083E091850185
:100B0000F091860180818F7D808382E00E94DB02EC
:100B100081E00E94D5028BE39FE10197F1F7E1E0CC
:100B2000809123028111E0E0E195F0E0E05FFD4F6C
:100B300084898E5F80680E94D5026EE171E080E159
:100B400092E00E94870361E082E00E94E50160E09C
:100B500083E00E94E50167E271E083E791E00E9493
:100B600087036AE371E083E791E00E948703C3E0B3
:100B7000D0E023E2A22EB12C3DE9232E30E0332E2B
:100B800040E0842E40E0942E60E082E00E949901D3
:100B9000CE010197F1F761E082E00E949901C50161
:100BA0000197F1F760E082E00E949901E1EBF0E04B
:100BB0006491F1018491E82FF0E0EE0FFF1FE05700
:100BC000FF4F8591949100E412E42FE030E0462F2E
:100BD0000E947E04611571058105910529F06F5F02
:100BE0007F4F8F4F9F4F9F700E944A0820E030E058
:100BF00048E652E40E94A90760936F017093700168
:100C000080937101909372016DE371E083E791E04D
:100C10000E948703C0906F01D0907001E090710135
:100C2000F0907201A7019601C701B6010E946E09FA
:100C300068E471E081111BC026013701E89477F860
:100C40002FEF3FEF4FE75FE7C301B2010E946E094C
:100C500081118DC02FEF3FEF4FE75FE7C301B20176
:100C60000E94A40718160CF082C06CE471E083E7C0
:100C700091E00E94870364E571E083E791E00E94C0
:100C800087036AE371E083E791E00E948703F0E461
:100C9000F0937C0080917A00806480937A00809148
:100CA0007A0086FDFCCF80917800E0907900FE2CE0
:100CB000E82E29ECE216F1040CF0D0C060E08DE0E3
:100CC0000E94990167E571E083E791E00E94870344
:100CD00027010F2C000C660877084AE0C301B20117
:100CE000F7FE0DC06DE283E791E00E942C016627BC
:100CF0007727CB0164197509860997094AE00E9494
:100D000096036AE371E083E791E00E9487030E9403
:100D100016026B017C0188EC482E512C612C712C41
:100D20000E9416026C197D098E099F09683E734066
:100D300081059105A8F381E0481A510861087108FE
:100D4000E8EECE0EE3E0DE1EE11CF11C411451047E
:100D50006104710429F78114910409F415CF0E94EC
:100D6000F600882309F410CF0E9400000DCF2FEF6A
:100D70003FEF4FE75FE4C701B6010E94FC08181679
:100D80001CF460E571E073CF2FEF3FEF4FE75FECAE
:100D9000C701B6010E94A40787FDF3CF20E030E031
:100DA000A901C701B6010E94A40787FF09C06DE22F
:100DB00083E791E00E942C01F7FAF094F7F8F094A1
:100DC0002AE037ED43EA5BE3C701B6010E9438072A
:100DD0002B013C010E941B086B017C010E944A0808
:100DE0009B01AC01C301B2010E9437072B013C01FA
:100DF0004AE0C701B6010E9496036EE283E791E0E4
:100E00000E942C0120E030E040E251E4C301B20135
:100E10000E9401092B013C010E941B086B01F12C6F
:100E2000E12C4AE0C701B6010E949603C701B60152
:100E30000E944A089B01AC01C301B2010E9437071E
:100E400020E030E040E251E40E9401090E941B08CA
:100E500090E080E04AE00E9496030DCF61E08DE0D3
:100E60000E94E50161E08DE00E94990150CF505849
:100E7000BB27AA270E944F070C94C2080E94B408FF
:100E800038F00E94BB0820F039F49F3F19F426F493
:100E90000C94B1080EF4E095E7FB0C94AB08E92F35
:100EA0000E94D30858F3BA1762077307840795079F
:100EB00020F079F4A6F50C94F5080EF4E0950B2ECD
:100EC000BA2FA02D0B01B90190010C01CA01A0019C
:100ED0001124FF27591B99F0593F50F4503E68F1F7
:100EE0001A16F040A22F232F342F4427585FF3CF38
:100EF000469537952795A795F0405395C9F77EF409
:100F00001F16BA0B620B730B840BBAF09150A1F051
:100F1000FF0FBB1F661F771F881FC2F70EC0BA0FD7
:100F2000621F731F841F48F4879577956795B7955F
:100F3000F7959E3F08F0B0CF9395880F08F099275A
:100F4000EE0F9795879508950E94870808F481E031
:100F500008950E94BD070C94C2080E94BB0858F077
:100F60000E94B40840F029F45F3F29F00C94AB08CC
:100F700051110C94F6080C94B1080E94D30868F340
:100F80009923B1F3552391F3951B550BBB27AA2742
:100F900062177307840738F09F5F5F4F220F331F7C
:100FA000441FAA1FA9F335D00E2E3AF0E0E832D044
:100FB00091505040E695001CCAF72BD0FE2F29D047
:100FC000660F771F881FBB1F261737074807AB0719
:100FD000B0E809F0BB0B802DBF01FF2793585F4F8E
:100FE0003AF09E3F510578F00C94AB080C94F6084B
:100FF0005F3FE4F3983ED4F3869577956795B79570
:10100000F7959F5FC9F7880F911D9695879597F97A
:101010000895E1E0660F771F881FBB1F62177307F3
:101020008407BA0720F0621B730B840BBA0BEE1F08
:1010300088F7E09508950E94DB0888F09F5798F0A4
:10104000B92F9927B751B0F0E1F0660F771F881FCD
:10105000991F1AF0BA95C9F714C0B13091F00E94E7
:10106000F508B1E008950C94F508672F782F8827CC
:10107000B85F39F0B93FCCF3869577956795B3950E
:10108000D9F73EF490958095709561957F4F8F4F7D
:101090009F4F0895E89409C097FB3EF49095809582
:1010A000709561957F4F8F4F9F4F9923A9F0F92F2E
:1010B00096E9BB279395F695879577956795B795AC
:1010C000F111F8CFFAF4BB0F11F460FF1BC06F5F92
:1010D0007F4F8F4F9F4F16C0882311F096E911C0A4
:1010E000772321F09EE8872F762F05C0662371F0C5
:1010F00096E8862F70E060E02AF09A95660F771FD9
:10110000881FDAF7880F9695879597F90895990FB4
:101110000008550FAA0BE0E8FEEF16161706E807C1
:10112000F907C0F012161306E407F50798F0621BE2
:10113000730B840B950B39F40A2661F0232B242BB7
:10114000252B21F408950A2609F4A140A6958FEFD6
:10115000811D811D089597F99F6780E870E060E028
:1011600008959FEF80EC089500240A941616170640
:1011700018060906089500240A9412161306140688
:1011800005060895092E0394000C11F4882352F0EB
:10119000BB0F40F4BF2B11F460FF04C06F5F7F4FA3
:1011A0008F4F9F4F089557FD9058440F551F59F08A
:1011B0005F3F71F04795880F97FB991F61F09F3F44
:1011C00079F087950895121613061406551FF2CF6D
:1011D0004695F1DF08C0161617061806991FF1CFBD
:1011E00086957105610508940895E894BB276627E4
:1011F0007727CB0197F908950E94870808F48FEFAD
:1012000008950E9414090C94C2080E94B40838F092
:101210000E94BB0820F0952311F00C94AB080C94AD
:10122000B10811240C94F6080E94D30870F3959F1E
:10123000C1F3950F50E0551F629FF001729FBB27CD
:10124000F00DB11D639FAA27F00DB11DAA1F649F69
:101250006627B00DA11D661F829F2227B00DA11D1C
:10126000621F739FB00DA11D621F839FA00D611DA2
:10127000221F749F3327A00D611D231F849F600DC3
:10128000211D822F762F6A2F11249F5750409AF0EC
:10129000F1F088234AF0EE0FFF1FBB1F661F771F78
:1012A000881F91505040A9F79E3F510580F00C9443
:1012B000AB080C94F6085F3FE4F3983ED4F38695B0
:1012C00077956795B795F795E7959F5FC1F7FE2BE3
:1012D000880F911D9695879597F908950E94870824
:1012E000880B990B0895A1E21A2EAA1BBB1BFD01C6
:1012F0000DC0AA1FBB1FEE1FFF1FA217B307E407F5
:10130000F50720F0A21BB30BE40BF50B661F771F4C
:10131000881F991F1A9469F760957095809590952C
:101320009B01AC01BD01CF010895EE0FFF1F059099
:0A133000F491E02D0994F894FFCF2A
:10133A00000000002C018C00B9007901EA00C80005
:10134A00DC000000000081038C003C023B02706F4D
:10135A00776572206F6E00556C747261736F6E6977
:10136A00632073656E736F723A000D0A00446973E5
:10137A0074616E63653A20006E616E00696E660084
:10138A006F766600636D004C445220526561646951
:06139A006E673A2000001E
:00000001FF
