:020000040000FA
:100000000C9463000C948B000C948B000C948B006C
:100010000C948B000C948B000C948B000C948B0034
:100020000C948B000C948B000C948B000C948B0024
:100030000C948B000C948B000C948B000C948B0014
:100040000C9436080C948B000C9404080C94DE0776
:100050000C948B000C948B000C948B000C948B00F4
:100060000C948B000C948B000000000023002600F1
:10007000290000000000240027002A0000000000E2
:10008000250028002B0004040404040404040202D4
:100090000202020203030303030301020408102007
:1000A0004080010204081020010204081020000012
:1000B0000008000201000003040700000000000027
:1000C0000000C5084A0C11241FBECFEFD8E0DEBFE8
:1000D000CDBF24E0A8E5B3E001C01D92AC32B20769
:1000E000E1F713E0A0E0B1E0ECE8F2E202C0059035
:1000F0000D92A835B107D9F710E0C2E6D0E004C0F0
:100100002197FE010E941F0FC136D107C9F70E9437
:1001100015090C9439110C940000AF92BF92CF9244
:10012000DF92EF92FF920F931F93CF93DF936C01B7
:100130007B018B01040F151FEB015E01AE18BF0898
:10014000C017D10759F06991D601ED91FC9101904A
:10015000F081E02DC6010995892B79F7C501DF9162
:10016000CF911F910F91FF90EF90DF90CF90BF90B4
:10017000AF900895FC01538D448D252F30E0842FDE
:1001800090E0821B930B541710F0CF9608950197BF
:100190000895FC01918D828D981761F0A28DAE0FAC
:1001A000BF2FB11D5D968C91928D9F5F9F73928F33
:1001B00090E008958FEF9FEF0895FC01918D828D5F
:1001C000981731F0828DE80FF11D858D90E008952C
:1001D0008FEF9FEF0895FC01918D228D892F90E084
:1001E000805C9F4F821B91098F73992708958DE63C
:1001F00093E00E94EB0021E0892B09F420E0822F9C
:10020000089580E090E0892B29F00E94F700811189
:100210000C9400000895FC01A48DA80FB92FB11D06
:10022000A35ABF4F2C91848D90E001968F7399272C
:10023000848FA689B7892C93A089B1898C9183700A
:1002400080648C93938D848D981306C00288F38903
:10025000E02D80818F7D80830895EF92FF920F9330
:100260001F93CF93DF93EC0181E0888F9B8D8C8D62
:1002700098131AC0E889F989808185FF15C09FB756
:10028000F894EE89FF896083E889F9898081837019
:10029000806480839FBF81E090E0DF91CF911F91C8
:1002A0000F91FF90EF900895F62E0B8D10E00F5FE9
:1002B0001F4F0F731127E02E8C8D8E110CC00FB6BF
:1002C00007FCFACFE889F989808185FFF5CFCE0157
:1002D0000E940B01F1CFEB8DEC0FFD2FF11DE35AC6
:1002E000FF4FF0829FB7F8940B8FEA89FB898081DA
:1002F0008062CFCFCF93DF93EC01888D8823B9F054
:10030000AA89BB89E889F9898C9185FD03C0808120
:1003100086FD0DC00FB607FCF7CF8C9185FFF2CF9D
:10032000808185FFEDCFCE010E940B01E9CFDF91E7
:10033000CF91089590E0FC01E255FF4F2491FC011C
:10034000E656FF4F3491FC01EA57FF4FE491EE234C
:10035000C9F0222339F0233001F1A8F4213019F13A
:10036000223029F1F0E0EE0FFF1FE458FF4FA59176
:10037000B4918FB7F894EC91611126C030953E236B
:100380003C938FBF08952730A9F02830C9F024305E
:1003900049F7809180008F7D03C0809180008F7726
:1003A00080938000DFCF84B58F7784BDDBCF84B5A9
:1003B0008F7DFBCF8091B0008F778093B000D2CF3C
:1003C0008091B0008F7DF9CF3E2BDACFCF93DF93B2
:1003D00090E0FC01E656FF4F24918A579F4FFC01A5
:1003E00084918823D1F090E0880F991FFC01EE588A
:1003F000FF4FA591B491FC01E458FF4FC591D491F2
:1004000061110EC09FB7F8948C91E22FE0958E2376
:100410008C932881E223E8839FBFDF91CF910895D9
:100420008FB7F894EC91E22BEC938FBFF6CF8E5000
:10043000806480937C0080917A00806480937A004D
:1004400080917A0086FDFCCF8091780090917900B0
:1004500008953FB7F8948091650390916603A09149
:100460006703B091680326B5A89B05C02F3F19F01C
:100470000196A11DB11D3FBFBA2FA92F982F882724
:10048000BC01CD01620F711D811D911D42E0660FFF
:10049000771F881F991F4A95D1F708958F929F92D1
:1004A000AF92BF92CF92DF92EF92FF926B017C01ED
:1004B0000E9429024B015C01C114D104E104F10442
:1004C000B9F00E942902681979098A099B09683ED6
:1004D00073408105910580F321E0C21AD108E1083B
:1004E000F10888EE880E83E0981EA11CB11CE4CFB1
:1004F000FF90EF90DF90CF90BF90AF909F908F9044
:100500000895089590E080E00895CF93DF93EC0183
:1005100060E08E810E949A0161E08E810E949A01C2
:1005200060E08E810E949A018BE891E00197F1F7DB
:10053000DF91CF910895CF92DF92EF92FF920F93C8
:100540001F93CF93DF936C017C0187E0E80EF11CD1
:10055000D0E0C0E0062F10E0B8010C2E02C0759567
:1005600067950A94E2F76170F70181917F010E941B
:100570009A012196C430D10579F7C601DF91CF9158
:100580001F910F91FF90EF90DF90CF900C94850218
:10059000CF92DF92EF92FF920F931F93CF93DF934F
:1005A000EC01F62E642F8C810E949A018D818F3F81
:1005B00019F060E00E949A010F2D10E08F8584FFF2
:1005C00025C06E0187E0C80ED11CF12CE12CB801CA
:1005D0000E2C02C0759567950A94E2F76170F601DA
:1005E00081916F010E949A01FFEFEF1AFF0A88E0E4
:1005F000E816F10461F7CE01DF91CF911F910F91C1
:10060000FF90EF90DF90CF900C948502B80184E0CA
:10061000759567958A95E1F7CE010E949B026F2D33
:10062000CE01DF91CF911F910F91FF90EF90DF905E
:10063000CF900C949B0240E0682F8AE094E00C94E9
:10064000C80281E00E941B038BE39FE10197F1F751
:100650000895CF93DF93823029F490911904986024
:100660009093190480931D0410921E0480E48093DB
:100670001F0480E18093200480E58093210461E0E1
:1006800080910E040E94E60180910F048F3F19F0C3
:1006900061E00E94E60161E0809110040E94E601A1
:1006A000CAE0D4E09E012A5034408091190484FDB0
:1006B0000BC084E090E021962817390744F461E0EC
:1006C0008E810E94E601EECF88E090E0F4CF8BE3CC
:1006D0009DE00197F1F760E080910E040E949A017D
:1006E00060E0809110040E949A0180910F048F3F76
:1006F00019F060E00E949A018091190484FD34C0D1
:1007000063E08AE094E00E949B02CBE4D6E4CE0151
:100710000197F1F763E08AE094E00E949B02219741
:10072000F1F763E08AE094E00E949B0283E592E0A7
:100730000197F1F762E08AE094E00E949B028091C9
:10074000190480620E941B0384E080931A048CE0E9
:100750000E941B030E94210382E080931B0486E019
:10076000DF91CF910C941B0380620E941B038BE4EA
:1007700096E40197F1F78091190480620E941B03AF
:1007800083E592E00197F1F78091190480620E945D
:100790001B03D5CF90911D04691710F06FEF690FFF
:1007A000E62FF0E0E65FFB4F9489890F80680C9498
:1007B0001B0341E00E94C80281E090E00895FC0123
:1007C00044815581809126049091270484179507D0
:1007D00080F08091220490912304009751F0608171
:1007E00071816115710529F00E942B1121E0892B7F
:1007F00009F020E0822F0895FB0101900020E9F725
:100800003197AF01461B570BDC01ED91FC91028043
:10081000F381E02D09948F929F92AF92BF92EF9255
:10082000FF920F931F93CF93DF93CDB7DEB7A197BE
:100830000FB6F894DEBF0FBECDBF7C01FA01CB012D
:1008400019A2223008F42AE08E010F5D1F4F822E7C
:10085000912CB12CA12CBF01A50194010E94FD0E89
:10086000F901CA016A300CF5605DD8016E938D0103
:10087000232B242B252B79F790E080E0109721F093
:10088000BD01C7010E94FC03A1960FB6F894DEBF1C
:100890000FBECDBFDF91CF911F910F91FF90EF90D1
:1008A000BF90AF909F908F900895695CDECFCF93FB
:1008B000DF93BC018DE693E00E94FC03EC0166E24D
:1008C00071E08DE693E00E94FC038C0F9D1FDF9189
:1008D000CF9108954F925F926F927F928F929F92E5
:1008E000AF92BF92CF92DF92EF92FF920F931F933E
:1008F000CF936B017C01742EAC019B010E94F80E1A
:1009000069E271E0811126C046015701E894B7F809
:100910002FEF3FEF4FE75FE7C501B4010E94F80EEC
:1009200081110CC02FEF3FEF4FE75FE7C501B40126
:100930000E948A0C6DE271E0181664F02FEF3FEF11
:100940004FE75FE4C701B6010E94F30E1816ACF43E
:1009500061E371E08DE693E0CF911F910F91FF90DD
:10096000EF90DF90CF90BF90AF909F908F907F904F
:100970006F905F904F900C94FC032FEF3FEF4FE789
:100980005FECC701B6010E948A0C87FDE1CF20E031
:1009900030E0A901C701B6010E948A0C10E000E016
:1009A00087FF0AC06DE28DE693E00E942D018C0165
:1009B000F7FAF094F7F8F094C0E060E070E080E0BF
:1009C0009FE37C1641F020E030E040E251E40E94D9
:1009D000520ECF5FF6CFA70196010E94E60D2B01C4
:1009E0003C010E94C40E4B015C012AE0BC01A40141
:1009F0008DE693E00E940B047C01E00EF11ECC23F7
:100A0000D1F1C501B4010E948F0C9B01AC01C3015F
:100A1000B2010E94E50D4B015C016EE28DE693E0B0
:100A20000E942D01E80EF91EC15028F120E030E0AF
:100A300040E251E4C501B4010E94F00C2B013C01DD
:100A40000E94C40E4B01B12CA12C2AE0B501A401D7
:100A50008DE693E00E940B04E80EF91EC501B40177
:100A60000E948F0C9B01AC01C301B2010E94E50DF5
:100A70004B015C01D9CFC701CF911F910F91FF901E
:100A8000EF90DF90CF90BF90AF909F908F907F902E
:100A90006F905F904F900895FC0180819181009745
:100AA00011F00C944E0C60E070E0CB010895CF93F0
:100AB000DF93EC01A881B981EB01E881F9811097FE
:100AC000F1F03097B1F4EC018C819D81892BC9F054
:100AD0008C9190E00BC0DB0114968D919C91892B39
:100AE00081F0808190E0919581959109DF91CF917E
:100AF0000895BF01CD01DF91CF910C941B11309768
:100B000051F790E080E0F2CF0F931F93CF93DF93E4
:100B1000EC0188819981009759F02A813B81261741
:100B2000370730F081E0DF91CF911F910F91089549
:100B30008B016F5F7F4F0E944A10009759F0998395
:100B400088831B830A832C813D81232B59F7FC0169
:100B50001082E8CF80E0E7CFCF93DF93EC0188816C
:100B60009981009711F00E94C10F198218821D828D
:100B70001C821B821A82DF91CF910895EF92FF921F
:100B80000F931F93CF93DF93EC017B01198218829F
:100B90001B821A821D821C82FB0101900020E9F752
:100BA00031978F01061B170BB8010E948405811134
:100BB00009C0CE01DF91CF911F910F91FF90EF906F
:100BC0000C94AC051D830C83B70188819981DF915A
:100BD000CF911F910F91FF90EF900C942411EF9201
:100BE000FF920F931F93CF93DF938C017B01EB0157
:100BF00009900020E9F72197C61BD70BBE010E9480
:100C00008405811109C0C801DF91CF911F910F9117
:100C1000FF90EF900C94AC05F801D583C483B70125
:100C200080819181DF91CF911F910F91FF90EF9083
:100C30000C942411CF92DF92EF92FF920F931F93A7
:100C4000CF93DF936C017B018A014617570720F48D
:100C50008F2D7A01062F182F68E271E0C6010E94DD
:100C6000BE05C0912604D0912704EC16FD06F8F4C9
:100C70000C171D0708F4E801E0912204F091230409
:100C8000EC0FFD1F108110826091220470912304EB
:100C90006E0D7F1DC6016115710599F00E94EF056B
:100CA0008091220490912304C80FD91F1883C60194
:100CB000DF91CF911F910F91FF90EF90DF90CF9038
:100CC00008950E94AC05ECCFFC01808191810097D2
:100CD00011F00C94C10F0895CF92DF92EF92FF9222
:100CE0000F931F93CF93DF9360E082E00E949A01FD
:100CF00083E090E00197F1F761E082E00E949A01C1
:100D000083E290E00197F1F760E082E00E949A01AF
:100D1000EDE9F0E06491E9E8F0E0E491F0E0EE0F55
:100D2000FF1FE859FF4F8591949100E412E42FE0F2
:100D300030E0462F0E9480086115710581059105FC
:100D400029F06F5F7F4F8F4F9F4F9F700E948F0CD6
:100D500020E030E048E652E40E94520E60935C03CB
:100D600070935D0380935E0390935F0365E371E08E
:100D70008DE693E00E94FC0360915C0370915D033B
:100D800080915E0390915F0342E00E946A0460E4F8
:100D900071E08DE693E00E94FC0366E271E08DE66F
:100DA00093E00E94FC038EE00E941702EC01893C54
:100DB00091050CF0ACC060E08DE00E949A0163E404
:100DC00071E08DE693E00E94FC036E010D2E000C95
:100DD000EE08FF082AE0B701A601D7FF0DC06DE2BB
:100DE0008DE693E00E942D0144275527BA014C1946
:100DF0005D096E097F092AE08DE693E00E940B04ED
:100E000066E271E08DE693E00E94FC0368EC70E01E
:100E100080E090E00E944E02C0916903D0916A0385
:100E200061E08BE00E94E601209709F079C060E064
:100E30008BE00E949A0163E081E00E94CA0361E5B1
:100E400071E08AE094E00E94FC0363E081E00E948C
:100E5000CA0362E671E08AE094E00E94FC034091DC
:100E6000690350916A034F3F510511F008F09FC08C
:100E7000052E000C660B770B2AE08AE094E00E94B6
:100E80000B048FE00E941702BC01990F880B990B8D
:100E90000E94910C20E030EC4FE754E40E94520E87
:100EA00020E030E04AEF53E40E94F00C60935803D6
:100EB0007093590380935A0390935B036FE671E03C
:100EC0008DE693E00E94FC036091580370915903F2
:100ED00080915A0390915B0341E00E946A0466E2AC
:100EE00071E08DE693E00E94FC0360910001709137
:100EF0000101072E000C880B990BDF91CF911F91F8
:100F00000F91FF90EF90DF90CF900C944E0261E034
:100F10008DE00E94E60161E08DE00E949A0176CFAB
:100F2000CF3FD10511F461E083CFE9EBF0E0E4912C
:100F3000E33019F140F4E130B1F0E230C9F0C038EB
:100F4000D1058CF774CFE73011F1E83041F1E4308E
:100F5000B1F780918000806280938000D0938B00F5
:100F6000C0938A0068CF84B5806884BDC7BD63CF55
:100F700084B5806284BDC8BD5ECF809180008068EA
:100F800080938000D0938900C093880054CF8091D3
:100F9000B00080688093B000C093B3004CCF8091C4
:100FA000B00080628093B000C093B40044CF6AE682
:100FB00071E08AE094E00E94FC0363CF1F920F92DD
:100FC0000FB60F9211242F933F934F935F936F931C
:100FD0007F938F939F93AF93BF93EF93FF938DE690
:100FE00093E00E940B01FF91EF91BF91AF919F9110
:100FF0008F917F916F915F914F913F912F910F90C2
:101000000FBE0F901F9018951F920F920FB60F9260
:1010100011242F938F939F93EF93FF93E0917D0380
:10102000F0917E038081E0918303F091840382FD3F
:101030001BC09081809186038F5F8F7320918703FF
:10104000821741F0E0918603F0E0E359FC4F958F61
:1010500080938603FF91EF919F918F912F910F9035
:101060000FBE0F901F9018958081F4CF1F920F92A2
:101070000FB60F9211242F933F938F939F93AF93AB
:10108000BF938091610390916203A0916303B0913B
:1010900064033091600323E0230F2D3758F5019648
:1010A000A11DB11D2093600380936103909362039F
:1010B000A0936303B09364038091650390916603EA
:1010C000A0916703B09168030196A11DB11D8093A3
:1010D000650390936603A0936703B0936803BF9181
:1010E000AF919F918F913F912F910F900FBE0F90D5
:1010F0001F90189526E8230F0296A11DB11DD2CF8F
:10110000CF92DF92EF92FF920F931F93E82FF92F68
:1011100005C0015011092109310961F1908196231F
:101120009417B9F305C0015011092109310911F1D2
:10113000908196239413F7CFC12CD12CE12CF12C64
:101140000AC08FEFC81AD80AE80AF80A0C151D055C
:101150002E053F0579F080818623841791F36C2D4D
:101160007D2D8E2D9F2D1F910F91FF90EF90DF9081
:10117000CF90089560E070E080E090E01F910F91C3
:10118000FF90EF90DF90CF900895EDE6F3E01382AB
:10119000128288EE93E0A0E0B0E084839583A6837A
:1011A000B7838CE091E09183808385EC90E0958714
:1011B000848784EC90E09787868780EC90E0918B21
:1011C000808B81EC90E0938B828B82EC90E0958B0E
:1011D000848B86EC90E0978B868B118E128E138E0B
:1011E000148E68E271E082E294E00E94BE05EAE0BB
:1011F000F4E0138212828EE191E09183808389E092
:1012000084838FEF858388E0868387E0878386E009
:10121000808785E0818784E082871386148615861F
:101220001686178681E00C942903CF93DF93CDB700
:10123000DEB762970FB6F894DEBF0FBECDBF7894CD
:1012400084B5826084BD84B5816084BD85B58260CB
:1012500085BD85B5816085BD80916E00816080937C
:101260006E001092810080918100826080938100E5
:1012700080918100816080938100809180008160F5
:10128000809380008091B10084608093B100809150
:10129000B00081608093B00080917A008460809378
:1012A0007A0080917A00826080937A0080917A003F
:1012B000816080937A0080917A00806880937A00C0
:1012C0001092C100E0917D03F0917E0382E0808363
:1012D000E0917903F0917A031082E0917B03F09121
:1012E0007C038FEC808310928503E0918103F09161
:1012F000820386E08083E0917F03F0918003808108
:1013000080618083E0917F03F09180038081886019
:101310008083E0917F03F0918003808180688083E7
:10132000E0917F03F091800380818F7D808382E054
:101330000E9429030E94210360E082E00E94CA0308
:101340006DE771E08AE094E00E94FC0361E082E0D6
:101350000E94E60160E083E00E94E60186E891E0F9
:101360000E945704CC24C394D12C54E0A52EB12C58
:1013700063E0862E912C22E0422E512C30E0232E69
:1013800030E0332E8DE693E00E94EB00181619062C
:101390006CF58DE693E00E94C90089831A82009162
:1013A0002604109127040F5F1F4FB80182E294E0DA
:1013B0000E948405882399F020912204309123040F
:1013C0008091260490912704BE016F5F7F4F820FAA
:1013D000931F0E942411109327040093260462E0B7
:1013E00070E080E090E00E944E02CCCF69E971E0AD
:1013F000CE0101960E94BE05CE0101960E94DF0338
:10140000182FCE0101960E946406112329F1D09273
:101410006C03C0926B030E94210360E082E00E9493
:10142000CA036DE971E08AE094E00E94FC038091B8
:101430006B0390916C038230910509F4DFC00CF0CE
:101440004AC0009709F4B7C0019709F4D0C080E3FF
:1014500093E00E945704BFC065EA71E0CE01019697
:101460000E94BE05CE0101960E94DF03182FCE0117
:1014700001960E946406112329F010926C031092C9
:101480006B03D5CF00916B0310916C0301301105F4
:1014900009F0E5C169EA71E0CE0101960E94BE053E
:1014A000CE0101960E94DF03F82ECE0101960E9424
:1014B0006406FF2009F4B1C150926C0340926B03A3
:1014C000B6CF90926C0380926B03B1CFB0926C0355
:1014D000A0926B03ACCF8330910509F4D0C0049780
:1014E00009F0B5CF8DED91E00E94570468EE73E0EE
:1014F00080E090E00E944E028DEE91E00E94570441
:1015000068EE73E080E090E00E944E0287E192E096
:101510000E94570468EE73E080E090E00E944E0263
:101520008FE392E00E94570468EE73E080E090E061
:101530000E944E0281E792E00E94570468EB7BE034
:1015400080E090E00E944E028FE992E00E945704F2
:1015500068EE73E080E090E00E944E028DEA92E037
:101560000E94570468EE73E080E090E00E944E0213
:101570008FEC92E00E94570468EE73E080E090E008
:101580000E944E028BEF92E00E94570468EE73E0D7
:1015900080E090E00E944E028FE093E00E945704AA
:1015A00068E873E180E090E00E944E02D0926C0304
:1015B000C0926B030AC082EB91E00E94570464EF73
:1015C00071E080E090E00E944E0268E271E082E209
:1015D00094E00E94EF052114310409F4D3CE0E9457
:1015E000F700882309F4C7CE0E940000C4CE87E22A
:1015F00093E00E9457040E946C06E7CF8BEB91E0CA
:101600000E9457040E946C06009126041091270442
:101610000115110571F0E0902204F09023046DE6AD
:1016200070E0C7010E941011BC016E197F09892B5F
:1016300011F46FEF7FEF6E5F7F4FA801CE0101962F
:101640000E941A06CE0101960E944C0570936A030F
:1016500060936903CE0101960E94640660E971E01F
:1016600080E090E00E944E0268E271E082E294E045
:101670000E94EF05D0926C03C0926B03ACCF8091B7
:10168000260490912704892BE1F060902204709049
:10169000230464E270E0C3010E9410117C01E6188B
:1016A000F708892B19F4EE24EA94FE2C6DE370E020
:1016B000C3010E9410118C0106191709892B31F4FE
:1016C00003C0EE24EA94FE2C0FEF1FEFB7016F5F0B
:1016D0007F4FA801CE010D960E941A0664EC71E0BE
:1016E000CE0101960E94BE05BE016F5F7F4FCE0105
:1016F0000D960E945705FF24F394892BB1F061EDFC
:1017000071E0CE0107960E94BE05BE01695F7F4F62
:10171000CE010D960E945705FF24F394892B09F002
:10172000F12CCE0107960E946406CE0101960E941C
:101730006406FF20B9F04091260450912704B801B7
:101740006F5F7F4FCE0101960E941A06CE0101966F
:101750000E944C057093010160930001CE01019637
:101760000E94640666ED71E0CE0101960E94BE05FE
:10177000BE016F5F7F4FCE010D960E9457057C0121
:10178000CE0101960E946406EF28B9F44091260428
:1017900050912704B8016F5F7F4FCE0101960E94E0
:1017A0001A06CE0101960E944C0570936A0360935D
:1017B0006903CE0101960E94640666E972E0CE01DB
:1017C00001960E94BE05BE016F5F7F4FCE010D9650
:1017D0000E9457057C01CE0101960E946406EF2805
:1017E000B9F44091260450912704B8016F5F7F4FF0
:1017F000CE0101960E941A06CE0101960E944C0568
:1018000070936C0360936B03CE0101960E94640693
:10181000CE010D960E946406D8CE61E573E0CE013C
:1018200001960E94BE05CE0101960E94DF03F82EAC
:10183000CE0101960E946406F11043CE63E573E089
:10184000CE0101960E94BE05CE0101960E94DF03E3
:10185000F82ECE0101960E946406F11037CE0230B8
:10186000110508F4E4CD6DEA71E0CE0101960E9405
:10187000BE05CE0101960E94DF03182FCE0101960E
:101880000E946406112309F4D2CDD0926C03C09259
:101890006B03CDCD82E294E00C9464061F93FC01AF
:1018A00099278827BC01E89411911032E9F3193087
:1018B00010F01E30C8F31B3251F01D3249F4689409
:1018C00006C00E94750C610F711D811D911D119143
:1018D00010531A30B0F33EF4909580957095619551
:1018E0007F4F8F4F9F4F1F910895592F482F372FAC
:1018F000262F660F771F881F991F660F771F881F77
:10190000991F620F731F841F951F660F771F881F13
:10191000991F08950E94CC0C08F481E00895E89482
:1019200009C097FB3EF490958095709561957F4F27
:101930008F4F9F4F9923A9F0F92F96E9BB279395D5
:10194000F695879577956795B795F111F8CFFAF4E5
:10195000BB0F11F460FF1BC06F5F7F4F8F4F9F4F16
:1019600016C0882311F096E911C0772321F09EE874
:10197000872F762F05C0662371F096E8862F70E0DA
:1019800060E02AF09A95660F771F881FDAF7880FB4
:101990009695879597F90895990F0008550FAA0B0A
:1019A000E0E8FEEF16161706E807F907C0F0121672
:1019B0001306E407F50798F0621B730B840B950B75
:1019C00039F40A2661F0232B242B252B21F40895CA
:1019D0000A2609F4A140A6958FEF811D811D089567
:1019E0000E94030D0C94740D0E94660D38F00E9445
:1019F0006D0D20F0952311F00C945D0D0C94630D8A
:101A000011240C94A80D0E94850D70F3959FC1F3CD
:101A1000950F50E0551F629FF001729FBB27F00D9C
:101A2000B11D639FAA27F00DB11DAA1F649F6627F1
:101A3000B00DA11D661F829F2227B00DA11D621F40
:101A4000739FB00DA11D621F839FA00D611D221FFA
:101A5000749F3327A00D611D231F849F600D211DDE
:101A6000822F762F6A2F11249F5750409AF0F1F061
:101A700088234AF0EE0FFF1FBB1F661F771F881FCA
:101A800091505040A9F79E3F510580F00C945D0D98
:101A90000C94A80D5F3FE4F3983ED4F386957795B8
:101AA0006795B795F795E7959F5FC1F7FE2B880F70
:101AB000911D9695879597F9089597F99F6780E806
:101AC00070E060E008959FEF80EC089500240A9490
:101AD0001616170618060906089500240A94121609
:101AE0001306140605060895092E0394000C11F43C
:101AF000882352F0BB0F40F4BF2B11F460FF04C0E9
:101B00006F5F7F4F8F4F9F4F089557FD9058440F41
:101B1000551F59F05F3F71F04795880F97FB991F4C
:101B200061F09F3F79F08795089512161306140609
:101B3000551FF2CF4695F1DF08C016161706180696
:101B4000991FF1CF86957105610508940895E89471
:101B5000BB2766277727CB0197F908952F923F92ED
:101B60004F925F926F927F928F929F92AF92BF92AD
:101B7000CF92DF92EF92FF920F931F93CF93DF9359
:101B8000CDB7DEB7CA1BDB0B0FB6F894DEBF0FBEB6
:101B9000CDBF09942A88398848885F846E847D8403
:101BA0008C849B84AA84B984C884DF80EE80FD8005
:101BB0000C811B81AA81B981CE0FD11D0FB6F8947B
:101BC000DEBF0FBECDBFED0108955058BB27AA2739
:101BD0000E94FD0D0C94740D0E94660D38F00E9459
:101BE0006D0D20F039F49F3F19F426F40C94630D29
:101BF0000EF4E095E7FB0C945D0DE92F0E94850D36
:101C000058F3BA17620773078407950720F079F431
:101C1000A6F50C94A70D0EF4E0950B2EBA2FA02D6F
:101C20000B01B90190010C01CA01A0011124FF2789
:101C3000591B99F0593F50F4503E68F11A16F04084
:101C4000A22F232F342F4427585FF3CF4695379583
:101C50002795A795F0405395C9F77EF41F16BA0B48
:101C6000620B730B840BBAF09150A1F0FF0FBB1FF6
:101C7000661F771F881FC2F70EC0BA0F621F731F3F
:101C8000841F48F4879577956795B795F7959E3F9C
:101C900008F0B0CF9395880F08F09927EE0F97952D
:101CA000879508950E94660E0C94740D0E946D0D28
:101CB00058F00E94660D40F029F45F3F29F00C9423
:101CC0005D0D51110C94A80D0C94630D0E94850DAF
:101CD00068F39923B1F3552391F3951B550BBB275B
:101CE000AA2762177307840738F09F5F5F4F220FA0
:101CF000331F441FAA1FA9F335D00E2E3AF0E0E897
:101D000032D091505040E695001CCAF72BD0FE2FE0
:101D100029D0660F771F881FBB1F26173707480774
:101D2000AB07B0E809F0BB0B802DBF01FF2793582C
:101D30005F4F3AF09E3F510578F00C945D0D0C9486
:101D4000A80D5F3FE4F3983ED4F3869577956795A9
:101D5000B795F7959F5FC9F7880F911D9695879561
:101D600097F90895E1E0660F771F881FBB1F621780
:101D700073078407BA0720F0621B730B840BBA0B3E
:101D8000EE1F88F7E09508950E948D0D88F09F570B
:101D900098F0B92F9927B751B0F0E1F0660F771F8F
:101DA000881F991F1AF0BA95C9F714C0B13091F085
:101DB0000E94A70DB1E008950C94A70D672F782F0E
:101DC0008827B85F39F0B93FCCF38695779567954A
:101DD000B395D9F73EF490958095709561957F4FB6
:101DE0008F4F9F4F08950E94CC0C08F48FEF0895F9
:101DF0000E94CC0C880B990B0895A1E21A2EAA1B05
:101E0000BB1BFD010DC0AA1FBB1FEE1FFF1FA217AA
:101E1000B307E407F50720F0A21BB30BE40BF50BA7
:101E2000661F771F881F991F1A9469F76095709530
:101E3000809590959B01AC01BD01CF010895EE0FF7
:101E4000FF1F0590F491E02D09940F931F93CF93FA
:101E5000DF938230910510F482E090E0E0912A0453
:101E6000F0912B0430E020E0B0E0A0E0309799F44E
:101E70002115310509F44AC0281B390B24303105DE
:101E8000D8F58A819B816115710589F1FB019383E6
:101E90008283FE0111C04081518102811381481764
:101EA0005907E0F04817590799F4109761F0129616
:101EB0000C93129713961C933296CF01DF91CF911A
:101EC0001F910F91089500932A0410932B04F4CFCF
:101ED0002115310551F04217530738F0A901DB01F4
:101EE0009A01BD01DF01F801C1CFEF01F9CF909355
:101EF0002B0480932A04CDCFFE01E20FF31F8193C0
:101F000091932250310939832883D7CF2091280417
:101F100030912904232B41F42091040130910501D3
:101F20003093290420932804209102013091030169
:101F30002115310541F42DB73EB74091060150916E
:101F40000701241B350BE0912804F0912904E217C6
:101F5000F307A0F42E1B3F0B2817390778F0AC01CC
:101F60004E5F5F4F2417350748F04E0F5F1F5093A9
:101F7000290440932804819391939FCFF0E0E0E0FF
:101F80009CCFCF93DF930097E9F0FC013297138247
:101F90001282A0912A04B0912B04ED0130E020E0E0
:101FA0001097A1F420813181820F931F2091280482
:101FB000309129042817390709F061C0F0932904EA
:101FC000E0932804DF91CF910895EA01CE17DF074F
:101FD000E8F54A815B819E0141155105B1F7E901A0
:101FE000FB83EA8349915991C40FD51FEC17FD0774
:101FF00061F4808191810296840F951FE901998394
:102000008883828193819B838A83F0E0E0E012964B
:102010008D919C9113970097B9F52D913C91119753
:10202000CD010296820F931F20912804309129043C
:102030002817390739F6309751F510922B04109272
:102040002A04B0932904A0932804BCCFD383C2836D
:1020500040815181840F951FC817D90761F44E5FE5
:102060005F4F88819981480F591F518340838A812E
:102070009B81938382832115310509F0B0CFF093C2
:102080002B04E0932A049ECFFD01DC01C0CF138214
:102090001282D7CFB0E0A0E0E0E5F0E10C94B00D03
:1020A0008C01009751F4CB010E94250F8C01C801CF
:1020B000CDB7DEB7E0E10C94CC0DFC01E60FF71FC5
:1020C0009C0122503109E217F30708F49DC0D901A1
:1020D000CD91DC911197C617D70798F0C530D1057F
:1020E00030F3CE0104978617970708F3C61BD70B6A
:1020F0002297C193D1936D937C93CF010E94C10F1E
:10210000D6CF5B01AC1ABD0A4C018C0E9D1EA0916E
:102110002A04B0912B04512C412CF12CE12C109766
:1021200031F580912804909129048815990509F0CA
:102130005CC04616570608F058C080910201909185
:102140000301009741F48DB79EB74091060150916D
:102150000701841B950BE817F90708F055C0F093A9
:102160002904E0932804F90171836083A0CF8D9145
:102170009C91119712966C90129713967C901397DE
:10218000A815B90559F56C0142E0C40ED11CCA145A
:10219000DB0420F1AC014A195B09DA0112961597AC
:1021A00080F06282738251834083D9016D937C9366
:1021B000E114F10471F0D7011396FC93EE9312979A
:1021C00076CF22968C0F9D1FF90191838083F301B6
:1021D000EFCFF0932B04E0932A0469CF48165906F9
:1021E00008F42C017D01D3019ACFCB010E94250F69
:1021F0007C01009749F0AE01B8010E940711C801A7
:102200000E94C10F870153CF10E000E050CFFB01C7
:10221000DC0102C001900D9241505040D8F7089562
:10222000FC018191861721F08823D9F79927089519
:102230003197CF010895FB01DC018D910190801948
:102240000110D9F3990B0895FB01DC0101900D9267
:102250000020E1F70895FB01DC014150504030F0CF
:102260008D910190801919F40020B9F7881B990B02
:10227000089510E0C2E6D0E004C0FE010E941F0FE6
:102280002196C336D107C9F7F894FFCF6400000048
:102290002C048000000000002D018D00BA007A019E
:1022A000EB00C900DD0000000000D9038D008202B0
:1022B00081020D0A006E616E00696E66006F7666BF
:1022C0000044697374616E63653A2000636D004C6D
:1022D00044522052656164696E673A2000202020D4
:1022E0002020202020202020202020202000707767
:1022F0006D76616C3A004F4646210074656D7065DD
:102300007261747572653A2000706F776572206F24
:102310006E00556C747261736F6E69632073656EC5
:10232000736F723A0040732E007374617274656447
:102330000040742E0070776D0065786974007374C6
:10234000617475732030007374617475732032008A
:10235000776F726B696E6764656C617900776B6427
:10236000790070776D76616C002D2D2D2D2D6865AF
:102370006C702D2D2D2D2D2D007573652022407331
:10238000222E20746F2073746172742874686973CC
:10239000206D616B6573206D797374617475732042
:1023A00031290075736520224074222E20746F201D
:1023B000656E642874686973206D616B6573206D48
:1023C00079737461747573203029007573652022E8
:1023D00024706172613D76616C756522746F206155
:1023E000737369676E2874686973206D616B6573B8
:1023F000206D797374617475732033290076616C74
:10240000696420706172613A70776D76616C2C77C7
:102410006F726B696E6764656C617928776B64793C
:10242000292C6D797374617475730070776D7661A2
:102430006C5B302C3235355D00776F726B696E677F
:1024400064656C617928776B6479295B302C322A5A
:102450002A33322D315D2C6D733B00096561636851
:102460002074696D6520207468652074696D65202D
:1024700064656C617920616674657220636F6C6C51
:10248000656374696E67006D797374617475737BCD
:10249000302C312C322C332C347D00757365206543
:1024A00078697420746F207265626F6F7420746F26
:1024B000206D79737461747573203100536F6D658D
:1024C0007468696E672057726F6E67216D797374D7
:1024D0006174757320696E76616C696400240068AC
:0424E000656C7000B7
:107E0000112484B714BE81FFF0D085E080938100F7
:107E100082E08093C00088E18093C10086E0809377
:107E2000C20080E18093C4008EE0C9D0259A86E02C
:107E300020E33CEF91E0309385002093840096BBD3
:107E4000B09BFECF1D9AA8958150A9F7CC24DD24C4
:107E500088248394B5E0AB2EA1E19A2EF3E0BF2EE7
:107E6000A2D0813461F49FD0082FAFD0023811F036
:107E7000013811F484E001C083E08DD089C08234E0
:107E800011F484E103C0853419F485E0A6D080C0E4
:107E9000853579F488D0E82EFF2485D0082F10E0AE
:107EA000102F00270E291F29000F111F8ED06801E7
:107EB0006FC0863521F484E090D080E0DECF843638
:107EC00009F040C070D06FD0082F6DD080E0C81688
:107ED00080E7D80618F4F601B7BEE895C0E0D1E017
:107EE00062D089930C17E1F7F0E0CF16F0E7DF06D8
:107EF00018F0F601B7BEE89568D007B600FCFDCFD4
:107F0000A601A0E0B1E02C9130E011968C91119780
:107F100090E0982F8827822B932B1296FA010C0160
:107F200087BEE89511244E5F5F4FF1E0A038BF0790
:107F300051F7F601A7BEE89507B600FCFDCF97BE46
:107F4000E89526C08437B1F42ED02DD0F82E2BD052
:107F50003CD0F601EF2C8F010F5F1F4F84911BD097
:107F6000EA94F801C1F70894C11CD11CFA94CF0C13
:107F7000D11C0EC0853739F428D08EE10CD085E9AC
:107F80000AD08FE07ACF813511F488E018D01DD067
:107F900080E101D065CF982F8091C00085FFFCCF94
:107FA0009093C60008958091C00087FFFCCF809118
:107FB000C00084FD01C0A8958091C6000895E0E648
:107FC000F0E098E1908380830895EDDF803219F02E
:107FD00088E0F5DFFFCF84E1DECF1F93182FE3DFCA
:107FE0001150E9F7F2DF1F91089580E0E8DFEE27F6
:047FF000FF270994CA
:027FFE00040479
:00000001FF
