:100000000C9463000C948B000C948B000C948B006C
:100010000C948B000C948B000C948B000C948B0034
:100020000C948B000C948B000C948B000C948B0024
:100030000C948B000C948B000C948B000C948B0014
:100040000C946D070C948B000C943B070C941507D3
:100050000C948B000C948B000C948B000C948B00F4
:100060000C948B000C948B000000000023002600F1
:10007000290000000000240027002A0000000000E2
:10008000250028002B0004040404040404040202D4
:100090000202020203030303030301020408102007
:1000A0004080010204081020010204081020000012
:1000B0000008000201000003040700000000000027
:1000C0000000FC07650A11241FBECFEFD8E0DEBF99
:1000D000CDBF22E0A6EBB1E001C01D92AA38B20765
:1000E000E1F711E0A0E0B1E0E0EBFEE102C0059035
:1000F0000D92A63BB107D9F710E0C2E6D0E004C0EC
:100100002197FE010E943A0DC136D107C9F70E941E
:100110004C080C944B0F0C940000AF92BF92CF92FE
:10012000DF92EF92FF920F931F93CF93DF936C01B7
:100130007B018B01040F151FEB015E01AE18BF0898
:10014000C017D10759F06991D601ED91FC9101904A
:10015000F081E02DC6010995892B79F7C501DF9162
:10016000CF911F910F91FF90EF90DF90CF90BF90B4
:10017000AF900895FC01538D448D252F30E0842FDE
:1001800090E0821B930B541710F0CF9608950197BF
:100190000895FC01918D828D981761F0A28DAE0FAC
:1001A000BF2FB11D5D968C91928D9F5F9F73928F33
:1001B00090E008958FEF9FEF0895FC01918D828D5F
:1001C000981731F0828DE80FF11D858D90E008952C
:1001D0008FEF9FEF0895FC01918D228D892F90E084
:1001E000805C9F4F821B91098F73992708958BEC38
:1001F00091E00E94EB0021E0892B09F420E0822F9E
:10020000089580E090E0892B29F00E94F700811189
:100210000C9400000895FC01A48DA80FB92FB11D06
:10022000A35ABF4F2C91848D90E001968F7399272C
:10023000848FA689B7892C93A089B1898C9183700A
:1002400080648C93938D848D981306C00288F38903
:10025000E02D80818F7D80830895EF92FF920F9330
:100260001F93CF93DF93EC0181E0888F9B8D8C8D62
:1002700098131AC0E889F989808185FF15C09FB756
:10028000F894EE89FF896083E889F9898081837019
:10029000806480839FBF81E090E0DF91CF911F91C8
:1002A0000F91FF90EF900895F62E0B8D10E00F5FE9
:1002B0001F4F0F731127E02E8C8D8E110CC00FB6BF
:1002C00007FCFACFE889F989808185FFF5CFCE0157
:1002D0000E940B01F1CFEB8DEC0FFD2FF11DE35AC6
:1002E000FF4FF0829FB7F8940B8FEA89FB898081DA
:1002F0008062CFCFCF93DF93EC01888D8823B9F054
:10030000AA89BB89E889F9898C9185FD03C0808120
:1003100086FD0DC00FB607FCF7CF8C9185FFF2CF9D
:10032000808185FFEDCFCE010E940B01E9CFDF91E7
:10033000CF91089590E0FC01E255FF4F2491FC011C
:10034000E656FF4F3491FC01EA57FF4FE491EE234C
:10035000C9F0222339F0233001F1A8F4213019F13A
:10036000223029F1F0E0EE0FFF1FE458FF4FA59176
:10037000B4918FB7F894EC91611126C030953E236B
:100380003C938FBF08952730A9F02830C9F024305E
:1003900049F7809180008F7D03C0809180008F7726
:1003A00080938000DFCF84B58F7784BDDBCF84B5A9
:1003B0008F7DFBCF8091B0008F778093B000D2CF3C
:1003C0008091B0008F7DF9CF3E2BDACFCF93DF93B2
:1003D00090E0FC01E656FF4F24918A579F4FFC01A5
:1003E00084918823D1F090E0880F991FFC01EE588A
:1003F000FF4FA591B491FC01E458FF4FC591D491F2
:1004000061110EC09FB7F8948C91E22FE0958E2376
:100410008C932881E223E8839FBFDF91CF910895D9
:100420008FB7F894EC91E22BEC938FBFF6CF8E5000
:10043000806480937C0080917A00806480937A004D
:1004400080917A0086FDFCCF8091780090917900B0
:1004500008953FB7F8948091C3019091C401A09191
:10046000C501B091C60126B5A89B05C02F3F19F064
:100470000196A11DB11D3FBFBA2FA92F982F882724
:10048000BC01CD01620F711D811D911D42E0660FFF
:10049000771F881F991F4A95D1F708958F929F92D1
:1004A000AF92BF92CF92DF92EF92FF924B015C012D
:1004B0000E9429026B017C010E9429026C197D09AE
:1004C0008E099F09683E734081059105A8F321E0DC
:1004D000821A9108A108B10888EEC80E83E0D81EE0
:1004E000E11CF11C81149104A104B10429F7FF90CF
:1004F000EF90DF90CF90BF90AF909F908F90089536
:10050000089590E080E00895CF93DF93EC0160E0E0
:100510008E810E949A0161E08E810E949A0160E0C2
:100520008E810E949A018BE891E00197F1F7DF91AB
:10053000CF910895CF92DF92EF92FF920F931F9386
:10054000CF93DF936C017C0187E0E80EF11CD0E0D3
:10055000C0E0062F10E0B8010C2E02C0759567951B
:100560000A94E2F76170F70181917F010E949A017C
:100570002196C430D10579F7C601DF91CF911F9143
:100580000F91FF90EF90DF90CF900C948402CF9268
:10059000DF92EF92FF920F931F93CF93DF93EC01C3
:1005A000F62E642F8C810E949A018D818F3F19F065
:1005B00060E00E949A010F2D10E08F8584FF25C016
:1005C0006E0187E0C80ED11CF12CE12CB8010E2C75
:1005D00002C0759567950A94E2F76170F601819102
:1005E0006F010E949A01FFEFEF1AFF0A88E0E816F8
:1005F000F10461F7CE01DF91CF911F910F91FF9030
:10060000EF90DF90CF900C948402B80184E0759550
:1006100067958A95E1F7CE010E949A026F2DCE016F
:10062000DF91CF911F910F91FF90EF90DF90CF90CE
:100630000C949A0240E0682F88E692E00C94C7027E
:1006400081E00E941A038BE39FE10197F1F708957F
:10065000CF93DF93823029F4909177029860909342
:10066000770280937B0210927C0280E480937D026B
:1006700080E180937E0280E580937F0261E080913B
:100680006C020E94E60180916D028F3F19F061E0DB
:100690000E94E60161E080916E020E94E601C8E6D8
:1006A000D2E09E01285632408091770284FD0BC033
:1006B00084E090E021962817390744F461E08E81A8
:1006C0000E94E601EECF88E090E0F4CF8BE39DE05E
:1006D0000197F1F760E080916C020E949A0160E05E
:1006E00080916E020E949A0180916D028F3F19F0F5
:1006F00060E00E949A018091770284FD34C063E03B
:1007000088E692E00E949A02CBE4D6E4CE010197FB
:10071000F1F763E088E692E00E949A022197F1F7F0
:1007200063E088E692E00E949A0283E592E00197F6
:10073000F1F762E088E692E00E949A0280917702E7
:1007400080620E941A0384E0809378028CE00E9409
:100750001A030E94200382E08093790286E0DF91F1
:10076000CF910C941A0380620E941A038BE496E4E2
:100770000197F1F78091770280620E941A0383E566
:1007800092E00197F1F78091770280620E941A034C
:10079000D5CF41E00E94C70281E090E00895FC01BE
:1007A0008091800290918102009761F06081718157
:1007B0006115710539F0448155810E943D0F21E09A
:1007C000892B09F020E0822F0895FB010190002081
:1007D000E9F73197AF01461B570BDC01ED91FC9116
:1007E0000280F381E02D09948F929F92AF92BF9285
:1007F000EF92FF920F931F93CF93DF93CDB7DEB7A6
:10080000A1970FB6F894DEBF0FBECDBF7C01FA01F1
:10081000CB0119A2223008F42AE08E010F5D1F4F90
:10082000822E912CB12CA12CBF01A50194010E9414
:10083000180DF901CA016A300CF5605DD8016E939C
:100840008D01232B242B252B79F790E080E0109746
:1008500021F0BD01C7010E94E503A1960FB6F894EF
:10086000DEBF0FBECDBFDF91CF911F910F91FF90E3
:10087000EF90BF90AF909F908F900895695CDECF0E
:10088000CF93DF93BC018BEC91E00E94E503EC0178
:1008900064E271E08BEC91E00E94E5038C0F9D1FF8
:1008A000DF91CF9108954F925F926F927F928F92D6
:1008B0009F92AF92BF92CF92DF92EF92FF920F93EF
:1008C0001F93CF936B017C01742EAC019B010E949E
:1008D000130D67E271E0811126C046015701E894CB
:1008E000B7F82FEF3FEF4FE75FE7C501B4010E9474
:1008F000130D81110CC02FEF3FEF4FE75FE7C501EC
:10090000B4010E94A50A6BE271E0181664F02FEFA3
:100910003FEF4FE75FE4C701B6010E940E0D1816C6
:10092000ACF46FE271E08BEC91E0CF911F910F91ED
:10093000FF90EF90DF90CF90BF90AF909F908F90FF
:100940007F906F905F904F900C94E5032FEF3FEFF7
:100950004FE75FECC701B6010E94A50A87FDE1CF12
:1009600020E030E0A901C701B6010E94A50A10E00D
:1009700000E087FF0AC06DE28BEC91E00E942D0140
:100980008C01F7FAF094F7F8F094C0E060E070E0C2
:1009900080E09FE37C1641F020E030E040E251E44B
:1009A0000E946D0CCF5FF6CFA70196010E94010C4B
:1009B0002B013C010E94DF0C4B015C012AE0BC01D1
:1009C000A4018BEC91E00E94F4037C01E00EF11E87
:1009D000CC23D1F1C501B4010E94AA0A9B01AC014C
:1009E000C301B2010E94000C4B015C016EE28BEC72
:1009F00091E00E942D01E80EF91EC15028F120E07F
:100A000030E040E251E4C501B4010E940B0B2B0120
:100A10003C010E94DF0C4B01B12CA12C2AE0B50156
:100A2000A4018BEC91E00E94F403E80EF91EC501CD
:100A3000B4010E94AA0A9B01AC01C301B2010E9449
:100A4000000C4B015C01D9CFC701CF911F910F91D1
:100A5000FF90EF90DF90CF90BF90AF909F908F90DE
:100A60007F906F905F904F900895FC0180819181FD
:100A7000009711F00C94DC0D08950F931F93CF9302
:100A8000DF93EC0188819981009759F02A813B819D
:100A90002617370730F081E0DF91CF911F910F913A
:100AA00008958B016F5F7F4F0E94650E009759F08C
:100AB000998388831B830A832C813D81232B59F7DB
:100AC000FC011082E8CF80E0E7CFEF92FF920F9316
:100AD0001F93CF93DF93EC017B018A01BA010E943F
:100AE0003D0528813981811114C02115310519F086
:100AF000C9010E94DC0D198218821D821C821B8292
:100B00001A82CE01DF91CF911F910F91FF90EF904C
:100B100008951D830C83B701C9010E94360FF1CFE0
:100B2000FB0101900020E9F73197AF01461B570BFD
:100B30000C946505FC0111821082138212821582C9
:100B40001482FB0101900020E9F73197AF01461BA9
:100B5000570B0C946505CF92DF92EF92FF920F93A3
:100B60001F93CF93DF9360E082E00E949A0183E0BD
:100B700090E00197F1F761E082E00E949A0183E240
:100B800090E00197F1F760E082E00E949A01EDE9C0
:100B9000F0E06491E9E8F0E0E491F0E0EE0FFF1F8F
:100BA000E859FF4F8591949100E412E42FE030E082
:100BB000462F0E94B707611571058105910529F03F
:100BC0006F5F7F4F8F4F9F4F9F700E94AA0A20E058
:100BD00030E048E652E40E946D0C6093BA017093D5
:100BE000BB018093BC019093BD0163E371E08BEC8A
:100BF00091E00E94E5036091BA017091BB01809180
:100C0000BC019091BD0142E00E9453046EE371E08B
:100C10008BEC91E00E94E50364E271E08BEC91E0E3
:100C20000E94E5038EE00E941702EC01893C9105C9
:100C30000CF0A2C060E08DE00E949A0161E471E0D6
:100C40008BEC91E00E94E5036E010D2E000CEE0886
:100C5000FF082AE0B701A601D7FF0DC06DE28BECBB
:100C600091E00E942D0144275527BA014C195D09D6
:100C70006E097F092AE08BEC91E00E94F40364E2A4
:100C800071E08BEC91E00E94E50368EC70E080E09D
:100C900090E00E944E02C091C701D091C80161E06E
:100CA0008BE00E94E601209709F06FC060E08BE0C6
:100CB0000E949A01E0917B02E43008F0ADC0E1505F
:100CC000F0E0E859FD4F84898F5F80680E941A0325
:100CD0006FE471E088E692E00E94E5034091C7016D
:100CE0005091C8014F3F510511F008F097C0052EF3
:100CF000000C660B770B2AE088E692E00E94F40372
:100D00008FE00E941702BC01990F880B990B0E947B
:100D1000AC0A20E030EC4FE754E40E946D0C20E078
:100D200030E04AEF53E40E940B0B6093B6017093DE
:100D3000B7018093B8019093B9016CE571E08BEC39
:100D400091E00E94E5036091B6017091B701809136
:100D5000B8019091B90141E00E94530464E271E04E
:100D60008BEC91E0DF91CF911F910F91FF90EF906D
:100D7000DF90CF900C94E50361E08DE00E94E601E6
:100D800061E08DE00E949A0180CFCF3FD10511F440
:100D900061E08DCFE9EBF0E0E491E33019F140F44C
:100DA000E130B1F0E230C9F0C038D1058CF77ECF28
:100DB000E73011F1E83041F1E430B1F78091800083
:100DC000806280938000D0938B00C0938A0072CFA2
:100DD00084B5806884BDC7BD6DCF84B5806284BD95
:100DE000C8BD68CF80918000806880938000D093D8
:100DF0008900C09388005ECF8091B00080688093A6
:100E0000B000C093B30056CF8091B0008062809351
:100E1000B000C093B4004ECFE3E052CF67E571E07D
:100E200088E692E00E94E5036BCF1F920F920FB607
:100E30000F9211242F933F934F935F936F937F9360
:100E40008F939F93AF93BF93EF93FF938BEC91E0BE
:100E50000E940B01FF91EF91BF91AF919F918F91F4
:100E60007F916F915F914F913F912F910F900FBEA6
:100E70000F901F9018951F920F920FB60F9211248A
:100E80002F938F939F93EF93FF93E091DB01F0916A
:100E9000DC018081E091E101F091E20182FD1BC063
:100EA00090818091E4018F5F8F732091E50182171B
:100EB00041F0E091E401F0E0E553FE4F958F80931F
:100EC000E401FF91EF919F918F912F910F900FBEB1
:100ED0000F901F9018958081F4CF1F920F920FB63C
:100EE0000F9211242F933F938F939F93AF93BF93B0
:100EF0008091BF019091C001A091C101B091C20148
:100F00003091BE0123E0230F2D3758F50196A11D26
:100F1000B11D2093BE018093BF019093C001A093A7
:100F2000C101B093C2018091C3019091C401A0910D
:100F3000C501B091C6010196A11DB11D8093C301E9
:100F40009093C401A093C501B093C601BF91AF9126
:100F50009F918F913F912F910F900FBE0F901F90F7
:100F6000189526E8230F0296A11DB11DD2CFCF926E
:100F7000DF92EF92FF920F931F93E82FF92F05C096
:100F8000015011092109310961F1908196239417CB
:100F9000B9F305C0015011092109310911F19081FE
:100FA00096239413F7CFC12CD12CE12CF12C0AC03D
:100FB0008FEFC81AD80AE80AF80A0C151D052E0585
:100FC0003F0579F080818623841791F36C2D7D2D68
:100FD0008E2D9F2D1F910F91FF90EF90DF90CF905E
:100FE000089560E070E080E090E01F910F91FF9025
:100FF000EF90DF90CF900895EBECF1E01382128236
:1010000088EE93E0A0E0B0E084839583A683B78365
:101010008AE091E09183808385EC90E095878487D6
:1010200084EC90E09787868780EC90E0918B808BB2
:1010300081EC90E0938B828B82EC90E0958B848B9B
:1010400086EC90E0978B868B118E128E138E148E09
:1010500066E271E080E892E00E949A05E8E6F2E03C
:10106000138212828CE191E09183808389E08483F2
:101070008FEF858388E0868387E0878386E080879B
:1010800085E0818784E0828713861486158616861C
:10109000178681E00C942803CF93DF9300D000D013
:1010A00000D0CDB7DEB7789484B5826084BD84B5B6
:1010B000816084BD85B5826085BD85B5816085BD53
:1010C00080916E00816080936E001092810080910B
:1010D0008100826080938100809181008160809393
:1010E0008100809180008160809380008091B100B8
:1010F00084608093B1008091B00081608093B000E3
:1011000080917A00846080937A0080917A00826076
:1011100080937A0080917A00816080937A00809138
:101120007A00806880937A001092C100E091DB0120
:10113000F091DC0182E08083E091D701F091D80149
:101140001082E091D901F091DA018FEC8083109246
:10115000E301E091DF01F091E00186E08083E0911E
:10116000DD01F091DE01808180618083E091DD010D
:10117000F091DE01808188608083E091DD01F09153
:10118000DE01808180688083E091DD01F091DE01E5
:1011900080818F7D808382E00E9428030E9420034B
:1011A000E1E080917B028111E0E0E195F0E0E85917
:1011B000FD4F84898E5F80680E941A036AE671E0A1
:1011C00088E692E00E94E50361E082E00E94E60189
:1011D00060E083E00E94E60183E791E00E94400422
:1011E00080E0682E80E0782E92E0892E912CAA244F
:1011F000A394B12C8BEC91E00E94EB001816190619
:101200006CF58BEC91E00E94C90089831A820091F1
:101210008402109185020F5F1F4FB80180E892E0B1
:101220000E943D05882399F020918002309181022F
:101230008091840290918502BE016F5F7F4F820F83
:10124000931F0E94360F109385020093840262E080
:1012500070E080E090E00E944E02CCCF66E871E042
:10126000CE0101960E949A05209184023091850258
:101270008D819E8110E02817390728F0CE01019654
:101280000E94CF03182FCE0101960E94350511232D
:1012900009F444C0B092CA01A092C9010E9420037F
:1012A000E1E080917B028111E0E0E195F0E0E85916
:1012B000FD4F84898E5F80680E941A036AE871E09E
:1012C00088E692E00E94E5038091C9019091CA01ED
:1012D0008130910509F46BC08230910509F46EC02C
:1012E000892B81F48BE991E00E94400464EF71E066
:1012F00080E090E00E944E0266E271E080E892E0B9
:101300000E9490056114710409F474CF0E94F700E3
:10131000882309F46FCF0E9400006CCF62E971E06E
:10132000CE0101960E949A05209184023091850297
:101330008D819E812817390728F0CE0101960E94E1
:10134000CF03182FCE0101960E943505112329F0F5
:101350001092CA011092C901B7CF8091C901909132
:10136000CA01019709F0B0CF66E971E0CE0101969C
:101370000E949A0520918402309185028D819E8180
:101380002817390738F0CE0101960E94CF0311E0EB
:10139000811101C010E0CE0101960E943505112394
:1013A00009F492CF9092CA018092C9018DCF84EA4C
:1013B00091E00E9440040E94AB059ECF8DEA91E02F
:1013C0000E9440040E94AB05E0908402F0908502E8
:1013D000E114F10471F0C0908002D09081026AE3C0
:1013E00070E0C6010E942B0F8C010C191D09892B7E
:1013F00011F40FEF1FEF0E5F1F4FE016F10628F4F8
:10140000902F812F8701E92EF82E1A8219821C82D3
:101410001B821E821D8250E040E066E271E0CE0138
:1014200001960E946505C0908402D09085020C153B
:101430001D0508F5EC14FD0408F46701E091800235
:10144000F0918102EC0DFD1DF08010826091800210
:1014500070918102600F711F6115710529F1CE0134
:1014600001960E9490058091800290918102C80EA1
:10147000D91EF601F08289819A81009711F10E94AC
:10148000690A7093C8016093C701CE0101960E945A
:10149000350566E271E080E892E00E949005B09226
:1014A000CA01A092C9012ECF89819A81009711F0BB
:1014B0000E94DC0D1A8219821E821D821C821B82F0
:1014C000D2CF60E070E0CB01DCCF80E892E00C94FA
:1014D00035051F93FC0199278827BC01E8941191D9
:1014E0001032E9F3193010F01E30C8F31B3251F0FE
:1014F0001D3249F4689406C00E94900A610F711D64
:10150000811D911D119110531A30B0F33EF4909546
:101510008095709561957F4F8F4F9F4F1F910895D4
:10152000592F482F372F262F660F771F881F991F97
:10153000660F771F881F991F620F731F841F951FE7
:10154000660F771F881F991F08950E94E70A08F405
:1015500081E00895E89409C097FB3EF4909580954A
:10156000709561957F4F8F4F9F4F9923A9F0F92F69
:1015700096E9BB279395F695879577956795B795E7
:10158000F111F8CFFAF4BB0F11F460FF1BC06F5FCD
:101590007F4F8F4F9F4F16C0882311F096E911C0DF
:1015A000772321F09EE8872F762F05C0662371F000
:1015B00096E8862F70E060E02AF09A95660F771F14
:1015C000881FDAF7880F9695879597F90895990FF0
:1015D0000008550FAA0BE0E8FEEF16161706E807FD
:1015E000F907C0F012161306E407F50798F0621B1E
:1015F000730B840B950B39F40A2661F0232B242BF3
:10160000252B21F408950A2609F4A140A6958FEF11
:10161000811D811D08950E941E0B0C948F0B0E944A
:10162000810B38F00E94880B20F0952311F00C9468
:10163000780B0C947E0B11240C94C30B0E94A00B0E
:1016400070F3959FC1F3950F50E0551F629FF00115
:10165000729FBB27F00DB11D639FAA27F00DB11D2E
:10166000AA1F649F6627B00DA11D661F829F2227B7
:10167000B00DA11D621F739FB00DA11D621F839F3E
:10168000A00D611D221F749F3327A00D611D231F14
:10169000849F600D211D822F762F6A2F11249F5762
:1016A00050409AF0F1F088234AF0EE0FFF1FBB1F65
:1016B000661F771F881F91505040A9F79E3F510524
:1016C00080F00C94780B0C94C30B5F3FE4F3983ECE
:1016D000D4F3869577956795B795F795E7959F5FCE
:1016E000C1F7FE2B880F911D9695879597F9089560
:1016F00097F99F6780E870E060E008959FEF80ECC5
:10170000089500240A941616170618060906089567
:1017100000240A9412161306140605060895092ECD
:101720000394000C11F4882352F0BB0F40F4BF2B3C
:1017300011F460FF04C06F5F7F4F8F4F9F4F08957C
:1017400057FD9058440F551F59F05F3F71F0479572
:10175000880F97FB991F61F09F3F79F08795089557
:10176000121613061406551FF2CF4695F1DF08C076
:10177000161617061806991FF1CF86957105610593
:1017800008940895E894BB2766277727CB0197F93B
:1017900008952F923F924F925F926F927F928F9215
:1017A0009F92AF92BF92CF92DF92EF92FF920F93F0
:1017B0001F93CF93DF93CDB7DEB7CA1BDB0B0FB6FA
:1017C000F894DEBF0FBECDBF09942A8839884888B7
:1017D0005F846E847D848C849B84AA84B984C8844D
:1017E000DF80EE80FD800C811B81AA81B981CE0F44
:1017F000D11D0FB6F894DEBF0FBECDBFED01089529
:101800005058BB27AA270E94180C0C948F0B0E94DB
:10181000810B38F00E94880B20F039F49F3F19F4B7
:1018200026F40C947E0B0EF4E095E7FB0C94780BF9
:10183000E92F0E94A00B58F3BA17620773078407B9
:10184000950720F079F4A6F50C94C20B0EF4E09500
:101850000B2EBA2FA02D0B01B90190010C01CA016A
:10186000A0011124FF27591B99F0593F50F4503E15
:1018700068F11A16F040A22F232F342F4427585F07
:10188000F3CF469537952795A795F0405395C9F71F
:101890007EF41F16BA0B620B730B840BBAF09150D7
:1018A000A1F0FF0FBB1F661F771F881FC2F70EC076
:1018B000BA0F621F731F841F48F487957795679549
:1018C000B795F7959E3F08F0B0CF9395880F08F035
:1018D0009927EE0F9795879508950E94810C0C9497
:1018E0008F0B0E94880B58F00E94810B40F029F466
:1018F0005F3F29F00C94780B51110C94C30B0C949E
:101900007E0B0E94A00B68F39923B1F3552391F34A
:10191000951B550BBB27AA2762177307840738F05E
:101920009F5F5F4F220F331F441FAA1FA9F335D0BB
:101930000E2E3AF0E0E832D091505040E695001C6F
:10194000CAF72BD0FE2F29D0660F771F881FBB1F29
:10195000261737074807AB07B0E809F0BB0B802D07
:10196000BF01FF2793585F4F3AF09E3F510578F033
:101970000C94780B0C94C30B5F3FE4F3983ED4F3C4
:10198000869577956795B795F7959F5FC9F7880F07
:10199000911D9695879597F90895E1E0660F771F59
:1019A000881FBB1F621773078407BA0720F0621BEA
:1019B000730B840BBA0BEE1F88F7E09508950E9415
:1019C000A80B88F09F5798F0B92F9927B751B0F01E
:1019D000E1F0660F771F881F991F1AF0BA95C9F7B3
:1019E00014C0B13091F00E94C20BB1E008950C9484
:1019F000C20B672F782F8827B85F39F0B93FCCF337
:101A0000869577956795B395D9F73EF4909580952F
:101A1000709561957F4F8F4F9F4F08950E94E70A01
:101A200008F48FEF08950E94E70A880B990B089538
:101A3000A1E21A2EAA1BBB1BFD010DC0AA1FBB1FD2
:101A4000EE1FFF1FA217B307E407F50720F0A21B44
:101A5000B30BE40BF50B661F771F881F991F1A94B1
:101A600069F760957095809590959B01AC01BD01DB
:101A7000CF010895EE0FFF1F0590F491E02D09941A
:101A80000F931F93CF93DF938230910510F482E080
:101A900090E0E0918802F091890230E020E0B0E02F
:101AA000A0E0309799F42115310509F44AC0281BAC
:101AB000390B24303105D8F58A819B816115710578
:101AC00089F1FB0193838283FE0111C04081518122
:101AD0000281138148175907E0F04817590799F414
:101AE000109761F012960C93129713961C933296EE
:101AF000CF01DF91CF911F910F910895009388023C
:101B000010938902F4CF2115310551F04217530784
:101B100038F0A901DB019A01BD01DF01F801C1CF55
:101B2000EF01F9CF9093890280938802CDCFFE0117
:101B3000E20FF31F81939193225031093983288357
:101B4000D7CF2091860230918702232B41F4209138
:101B50000201309103013093870220938602209185
:101B60000001309101012115310541F42DB73EB737
:101B70004091040150910501241B350BE091860230
:101B8000F0918702E217F307A0F42E1B3F0B2817F2
:101B9000390778F0AC014E5F5F4F2417350748F0E6
:101BA0004E0F5F1F5093870240938602819391935B
:101BB0009FCFF0E0E0E09CCFCF93DF930097E9F078
:101BC000FC01329713821282A0918802B09189029F
:101BD000ED0130E020E01097A1F420813181820FE7
:101BE000931F20918602309187022817390709F048
:101BF00061C0F0938702E0938602DF91CF91089550
:101C0000EA01CE17DF07E8F54A815B819E014115A5
:101C10005105B1F7E901FB83EA8349915991C40F5A
:101C2000D51FEC17FD0761F4808191810296840F26
:101C3000951FE90199838883828193819B838A839D
:101C4000F0E0E0E012968D919C9113970097B9F522
:101C50002D913C911197CD010296820F931F2091F7
:101C60008602309187022817390739F6309751F5E7
:101C70001092890210928802B0938702A093860284
:101C8000BCCFD383C28340815181840F951FC81775
:101C9000D90761F44E5F5F4F88819981480F591FC2
:101CA000518340838A819B819383828321153105EF
:101CB00009F0B0CFF0938902E09388029ECFFD0136
:101CC000DC01C0CF13821282D7CFB0E0A0E0EBE6F8
:101CD000FEE00C94CB0B8C01009751F4CB010E94D9
:101CE000400D8C01C801CDB7DEB7E0E10C94E70BE5
:101CF000FC01E60FF71F9C0122503109E217F307A0
:101D000008F49DC0D901CD91DC911197C617D70772
:101D100098F0C530D10530F3CE01049786179707A8
:101D200008F3C61BD70B2297C193D1936D937C9375
:101D3000CF010E94DC0DD6CF5B01AC1ABD0A4C016D
:101D40008C0E9D1EA0918802B0918902512C412CCD
:101D5000F12CE12C109731F5809186029091870249
:101D60008815990509F05CC04616570608F058C05A
:101D70008091000190910101009741F48DB79EB7C9
:101D80004091040150910501841B950BE817F90758
:101D900008F055C0F0938702E0938602F901718341
:101DA0006083A0CF8D919C91119712966C901297A1
:101DB00013967C901397A815B90559F56C0142E06C
:101DC000C40ED11CCA14DB0420F1AC014A195B0912
:101DD000DA011296159780F06282738251834083F4
:101DE000D9016D937C93E114F10471F0D70113963E
:101DF000FC93EE93129776CF22968C0F9D1FF901DC
:101E000091838083F301EFCFF0938902E0938802FE
:101E100069CF4816590608F42C017D01D3019ACFE9
:101E2000CB010E94400D7C01009749F0AE01B80142
:101E30000E94220FC8010E94DC0D870153CF10E0E1
:101E400000E050CFFB01DC0102C001900D92415037
:101E50005040D8F70895FC018191861721F088231E
:101E6000D9F7992708953197CF010895FB01DC0137
:101E700001900D920020E1F70895FB01DC01415033
:101E8000504030F08D910190801919F40020B9F77D
:101E9000881B990B089510E0C2E6D0E004C0FE0153
:101EA0000E943A0D2196C336D107C9F7F894FFCFA7
:101EB00000008A028000000000002D018D00BA00A1
:101EC0007A01EB00C900DD0000000000C9038D00AD
:101ED000810280020D0A006E616E00696E66006FFD
:101EE00076660044697374616E63653A2000636DC1
:101EF000004C44522052656164696E673A2000705C
:101F0000776D76616C3A004F4646210074656D70BE
:101F1000657261747572653A2000706F7765722022
:101F20006F6E00556C747261736F6E6963207365B8
:101F30006E736F723A0040732E0073746172746531
:101F4000640040742E0070776D3A0073746174758C
:101F50007320300073746174757320310073746181
:061F6000747573203200CD
:00000001FF
